{
  "abi": [
    {
      "inputs": [
        {
          "internalType": "string",
          "name": "name_",
          "type": "string"
        },
        {
          "internalType": "string",
          "name": "symbol_",
          "type": "string"
        }
      ],
      "stateMutability": "nonpayable",
      "type": "constructor"
    },
    {
      "anonymous": false,
      "inputs": [
        {
          "indexed": true,
          "internalType": "address",
          "name": "owner",
          "type": "address"
        },
        {
          "indexed": true,
          "internalType": "address",
          "name": "approved",
          "type": "address"
        },
        {
          "indexed": true,
          "internalType": "uint256",
          "name": "tokenId",
          "type": "uint256"
        }
      ],
      "name": "Approval",
      "type": "event"
    },
    {
      "anonymous": false,
      "inputs": [
        {
          "indexed": true,
          "internalType": "address",
          "name": "owner",
          "type": "address"
        },
        {
          "indexed": true,
          "internalType": "address",
          "name": "operator",
          "type": "address"
        },
        {
          "indexed": false,
          "internalType": "bool",
          "name": "approved",
          "type": "bool"
        }
      ],
      "name": "ApprovalForAll",
      "type": "event"
    },
    {
      "anonymous": false,
      "inputs": [
        {
          "indexed": true,
          "internalType": "address",
          "name": "from",
          "type": "address"
        },
        {
          "indexed": true,
          "internalType": "address",
          "name": "to",
          "type": "address"
        },
        {
          "indexed": true,
          "internalType": "uint256",
          "name": "tokenId",
          "type": "uint256"
        }
      ],
      "name": "Transfer",
      "type": "event"
    },
    {
      "anonymous": false,
      "inputs": [
        {
          "indexed": true,
          "internalType": "uint256",
          "name": "tokenId",
          "type": "uint256"
        },
        {
          "indexed": true,
          "internalType": "address",
          "name": "user",
          "type": "address"
        },
        {
          "indexed": false,
          "internalType": "uint64",
          "name": "expires",
          "type": "uint64"
        }
      ],
      "name": "UpdateUser",
      "type": "event"
    },
    {
      "inputs": [
        {
          "internalType": "address",
          "name": "to",
          "type": "address"
        },
        {
          "internalType": "uint256",
          "name": "tokenId",
          "type": "uint256"
        }
      ],
      "name": "approve",
      "outputs": [],
      "stateMutability": "nonpayable",
      "type": "function"
    },
    {
      "inputs": [
        {
          "internalType": "address",
          "name": "owner",
          "type": "address"
        }
      ],
      "name": "balanceOf",
      "outputs": [
        {
          "internalType": "uint256",
          "name": "",
          "type": "uint256"
        }
      ],
      "stateMutability": "view",
      "type": "function"
    },
    {
      "inputs": [
        {
          "internalType": "uint256",
          "name": "tokenId",
          "type": "uint256"
        }
      ],
      "name": "getApproved",
      "outputs": [
        {
          "internalType": "address",
          "name": "",
          "type": "address"
        }
      ],
      "stateMutability": "view",
      "type": "function"
    },
    {
      "inputs": [
        {
          "internalType": "address",
          "name": "owner",
          "type": "address"
        },
        {
          "internalType": "address",
          "name": "operator",
          "type": "address"
        }
      ],
      "name": "isApprovedForAll",
      "outputs": [
        {
          "internalType": "bool",
          "name": "",
          "type": "bool"
        }
      ],
      "stateMutability": "view",
      "type": "function"
    },
    {
      "inputs": [
        {
          "internalType": "uint256",
          "name": "tokenId",
          "type": "uint256"
        }
      ],
      "name": "isRentable",
      "outputs": [
        {
          "internalType": "bool",
          "name": "",
          "type": "bool"
        }
      ],
      "stateMutability": "view",
      "type": "function"
    },
    {
      "inputs": [
        {
          "internalType": "uint256",
          "name": "tokenId",
          "type": "uint256"
        }
      ],
      "name": "mint",
      "outputs": [],
      "stateMutability": "nonpayable",
      "type": "function"
    },
    {
      "inputs": [],
      "name": "name",
      "outputs": [
        {
          "internalType": "string",
          "name": "",
          "type": "string"
        }
      ],
      "stateMutability": "view",
      "type": "function"
    },
    {
      "inputs": [
        {
          "internalType": "uint256",
          "name": "tokenId",
          "type": "uint256"
        }
      ],
      "name": "ownerOf",
      "outputs": [
        {
          "internalType": "address",
          "name": "",
          "type": "address"
        }
      ],
      "stateMutability": "view",
      "type": "function"
    },
    {
      "inputs": [
        {
          "internalType": "uint256",
          "name": "tokenId",
          "type": "uint256"
        }
      ],
      "name": "rentFee",
      "outputs": [
        {
          "internalType": "uint256",
          "name": "",
          "type": "uint256"
        }
      ],
      "stateMutability": "view",
      "type": "function"
    },
    {
      "inputs": [
        {
          "internalType": "address",
          "name": "from",
          "type": "address"
        },
        {
          "internalType": "address",
          "name": "to",
          "type": "address"
        },
        {
          "internalType": "uint256",
          "name": "tokenId",
          "type": "uint256"
        }
      ],
      "name": "safeTransferFrom",
      "outputs": [],
      "stateMutability": "nonpayable",
      "type": "function"
    },
    {
      "inputs": [
        {
          "internalType": "address",
          "name": "from",
          "type": "address"
        },
        {
          "internalType": "address",
          "name": "to",
          "type": "address"
        },
        {
          "internalType": "uint256",
          "name": "tokenId",
          "type": "uint256"
        },
        {
          "internalType": "bytes",
          "name": "data",
          "type": "bytes"
        }
      ],
      "name": "safeTransferFrom",
      "outputs": [],
      "stateMutability": "nonpayable",
      "type": "function"
    },
    {
      "inputs": [
        {
          "internalType": "address",
          "name": "operator",
          "type": "address"
        },
        {
          "internalType": "bool",
          "name": "approved",
          "type": "bool"
        }
      ],
      "name": "setApprovalForAll",
      "outputs": [],
      "stateMutability": "nonpayable",
      "type": "function"
    },
    {
      "inputs": [
        {
          "internalType": "uint256",
          "name": "tokenId",
          "type": "uint256"
        },
        {
          "internalType": "address",
          "name": "user",
          "type": "address"
        },
        {
          "internalType": "uint64",
          "name": "expires",
          "type": "uint64"
        },
        {
          "internalType": "uint256",
          "name": "rentFee",
          "type": "uint256"
        },
        {
          "internalType": "uint256",
          "name": "marketplaceFee",
          "type": "uint256"
        }
      ],
      "name": "setUser",
      "outputs": [],
      "stateMutability": "nonpayable",
      "type": "function"
    },
    {
      "inputs": [
        {
          "internalType": "bytes4",
          "name": "interfaceId",
          "type": "bytes4"
        }
      ],
      "name": "supportsInterface",
      "outputs": [
        {
          "internalType": "bool",
          "name": "",
          "type": "bool"
        }
      ],
      "stateMutability": "view",
      "type": "function"
    },
    {
      "inputs": [],
      "name": "symbol",
      "outputs": [
        {
          "internalType": "string",
          "name": "",
          "type": "string"
        }
      ],
      "stateMutability": "view",
      "type": "function"
    },
    {
      "inputs": [],
      "name": "time",
      "outputs": [
        {
          "internalType": "uint256",
          "name": "",
          "type": "uint256"
        }
      ],
      "stateMutability": "view",
      "type": "function"
    },
    {
      "inputs": [
        {
          "internalType": "uint256",
          "name": "tokenId",
          "type": "uint256"
        }
      ],
      "name": "tokenURI",
      "outputs": [
        {
          "internalType": "string",
          "name": "",
          "type": "string"
        }
      ],
      "stateMutability": "view",
      "type": "function"
    },
    {
      "inputs": [
        {
          "internalType": "address",
          "name": "from",
          "type": "address"
        },
        {
          "internalType": "address",
          "name": "to",
          "type": "address"
        },
        {
          "internalType": "uint256",
          "name": "tokenId",
          "type": "uint256"
        }
      ],
      "name": "transferFrom",
      "outputs": [],
      "stateMutability": "nonpayable",
      "type": "function"
    },
    {
      "inputs": [
        {
          "internalType": "uint256",
          "name": "tokenId",
          "type": "uint256"
        }
      ],
      "name": "userExpires",
      "outputs": [
        {
          "internalType": "uint256",
          "name": "",
          "type": "uint256"
        }
      ],
      "stateMutability": "view",
      "type": "function"
    },
    {
      "inputs": [
        {
          "internalType": "uint256",
          "name": "tokenId",
          "type": "uint256"
        }
      ],
      "name": "userOf",
      "outputs": [
        {
          "internalType": "address",
          "name": "",
          "type": "address"
        }
      ],
      "stateMutability": "view",
      "type": "function"
    }
  ],
  "bytecode": {
    "object": "0x60806040523480156200001157600080fd5b5060405162001abd38038062001abd833981016040819052620000349162000123565b818160006200004483826200021c565b5060016200005382826200021c565b5050505050620002e8565b634e487b7160e01b600052604160045260246000fd5b600082601f8301126200008657600080fd5b81516001600160401b0380821115620000a357620000a36200005e565b604051601f8301601f19908116603f01168101908282118183101715620000ce57620000ce6200005e565b81604052838152602092508683858801011115620000eb57600080fd5b600091505b838210156200010f5785820183015181830184015290820190620000f0565b600093810190920192909252949350505050565b600080604083850312156200013757600080fd5b82516001600160401b03808211156200014f57600080fd5b6200015d8683870162000074565b935060208501519150808211156200017457600080fd5b50620001838582860162000074565b9150509250929050565b600181811c90821680620001a257607f821691505b602082108103620001c357634e487b7160e01b600052602260045260246000fd5b50919050565b601f8211156200021757600081815260208120601f850160051c81016020861015620001f25750805b601f850160051c820191505b818110156200021357828155600101620001fe565b5050505b505050565b81516001600160401b038111156200023857620002386200005e565b62000250816200024984546200018d565b84620001c9565b602080601f8311600181146200028857600084156200026f5750858301515b600019600386901b1c1916600185901b17855562000213565b600085815260208120601f198616915b82811015620002b95788860151825594840194600190910190840162000298565b5085821015620002d85787850151600019600388901b60f8161c191681555b5050505050600190811b01905550565b6117c580620002f86000396000f3fe608060405234801561001057600080fd5b506004361061012c5760003560e01c806370a08231116100ad578063b88d4fde11610071578063b88d4fde14610281578063c2f1f14a14610294578063c392598d146102a7578063c87b56dd146102cc578063e985e9c5146102df57600080fd5b806370a082311461022d5780638fc88c481461024057806395d89b4114610253578063a0712d681461025b578063a22cb4651461026e57600080fd5b806323b872dd116100f457806323b872dd146101be5780633094321a146101d1578063325effee146101f457806342842e0e146102075780636352211e1461021a57600080fd5b806301ffc9a71461013157806306fdde0314610159578063081812fc1461016e578063095ea7b31461019957806316ada547146101ae575b600080fd5b61014461013f366004611284565b6102f2565b60405190151581526020015b60405180910390f35b61016161031d565b60405161015091906112f1565b61018161017c366004611304565b6103af565b6040516001600160a01b039091168152602001610150565b6101ac6101a7366004611334565b6103d6565b005b425b604051908152602001610150565b6101ac6101cc36600461135e565b6104f0565b6101b06101df366004611304565b60009081526006602052604090206001015490565b6101ac61020236600461139a565b610521565b6101ac61021536600461135e565b61069b565b610181610228366004611304565b6106b6565b6101b061023b3660046113f7565b610716565b6101b061024e366004611304565b61079c565b6101616107f5565b6101ac610269366004611304565b610804565b6101ac61027c366004611412565b610811565b6101ac61028f366004611464565b610820565b6101816102a2366004611304565b610858565b6101446102b5366004611304565b600090815260066020526040902060010154151590565b6101616102da366004611304565b6108a4565b6101446102ed366004611540565b610918565b60006001600160e01b03198216632b424ad760e21b1480610317575061031782610946565b92915050565b60606000805461032c90611573565b80601f016020809104026020016040519081016040528092919081815260200182805461035890611573565b80156103a55780601f1061037a576101008083540402835291602001916103a5565b820191906000526020600020905b81548152906001019060200180831161038857829003601f168201915b5050505050905090565b60006103ba82610996565b506000908152600460205260409020546001600160a01b031690565b60006103e1826106b6565b9050806001600160a01b0316836001600160a01b0316036104535760405162461bcd60e51b815260206004820152602160248201527f4552433732313a20617070726f76616c20746f2063757272656e74206f776e656044820152603960f91b60648201526084015b60405180910390fd5b336001600160a01b038216148061046f575061046f8133610918565b6104e15760405162461bcd60e51b815260206004820152603d60248201527f4552433732313a20617070726f76652063616c6c6572206973206e6f7420746f60448201527f6b656e206f776e6572206f7220617070726f76656420666f7220616c6c000000606482015260840161044a565b6104eb83836109f5565b505050565b6104fa3382610a63565b6105165760405162461bcd60e51b815260040161044a906115ad565b6104eb838383610ac2565b61052b3386610a63565b6105925760405162461bcd60e51b815260206004820152603260248201527f455243343930373a207472616e736665722063616c6c6572206973206e6f74206044820152711bdddb995c881b9bdc88185c1c1c9bdd995960721b606482015260840161044a565b6000858152600660205260409020805442600160a01b90910467ffffffffffffffff16106106025760405162461bcd60e51b815260206004820152601960248201527f416c72656164792072656e74656420746f20736f6d656f6e6500000000000000604482015260640161044a565b606461060f846001611610565b6106199190611627565b81546001600160a01b0387166001600160e01b03199091168117600160a01b67ffffffffffffffff881690810291909117845560018401869055600284018390556040519081529193509087907f4e06b4e7000e659094299b3533b47b6aa8ad048e95e872d23d1f4ee55af89cfe9060200160405180910390a3505050505050565b6104eb83838360405180602001604052806000815250610820565b6000818152600260205260408120546001600160a01b0316806103175760405162461bcd60e51b8152602060048201526018602482015277115490cdcc8c4e881a5b9d985b1a59081d1bdad95b88125160421b604482015260640161044a565b60006001600160a01b0382166107805760405162461bcd60e51b815260206004820152602960248201527f4552433732313a2061646472657373207a65726f206973206e6f7420612076616044820152683634b21037bbb732b960b91b606482015260840161044a565b506001600160a01b031660009081526003602052604090205490565b60008181526006602052604081205442600160a01b90910467ffffffffffffffff16106107e75750600090815260066020526040902054600160a01b900467ffffffffffffffff1690565b50600019919050565b919050565b60606001805461032c90611573565b61080e3382610c33565b50565b61081c338383610dcc565b5050565b61082a3383610a63565b6108465760405162461bcd60e51b815260040161044a906115ad565b61085284848484610e9a565b50505050565b60008181526006602052604081205442600160a01b90910467ffffffffffffffff161061089b57506000908152600660205260409020546001600160a01b031690565b610317826106b6565b60606108af82610996565b60006108c660408051602081019091526000815290565b905060008151116108e65760405180602001604052806000815250610911565b806108f084610ecd565b604051602001610901929190611649565b6040516020818303038152906040525b9392505050565b6001600160a01b03918216600090815260056020908152604080832093909416825291909152205460ff1690565b60006001600160e01b031982166380ac58cd60e01b148061097757506001600160e01b03198216635b5e139f60e01b145b8061031757506301ffc9a760e01b6001600160e01b0319831614610317565b6000818152600260205260409020546001600160a01b031661080e5760405162461bcd60e51b8152602060048201526018602482015277115490cdcc8c4e881a5b9d985b1a59081d1bdad95b88125160421b604482015260640161044a565b600081815260046020526040902080546001600160a01b0319166001600160a01b0384169081179091558190610a2a826106b6565b6001600160a01b03167f8c5be1e5ebec7d5bd14f71427d1e84f3dd0314c0f7b2291e5b200ac8c7c3b92560405160405180910390a45050565b600080610a6f836106b6565b9050806001600160a01b0316846001600160a01b03161480610a965750610a968185610918565b80610aba5750836001600160a01b0316610aaf846103af565b6001600160a01b0316145b949350505050565b826001600160a01b0316610ad5826106b6565b6001600160a01b031614610afb5760405162461bcd60e51b815260040161044a90611678565b6001600160a01b038216610b5d5760405162461bcd60e51b8152602060048201526024808201527f4552433732313a207472616e7366657220746f20746865207a65726f206164646044820152637265737360e01b606482015260840161044a565b610b6a8383836001610f60565b826001600160a01b0316610b7d826106b6565b6001600160a01b031614610ba35760405162461bcd60e51b815260040161044a90611678565b600081815260046020908152604080832080546001600160a01b03199081169091556001600160a01b0387811680865260038552838620805460001901905590871680865283862080546001019055868652600290945282852080549092168417909155905184937fddf252ad1be2c89b69c2b068fc378daa952ba7f163c4a11628f55a4df523b3ef91a4505050565b6001600160a01b038216610c895760405162461bcd60e51b815260206004820181905260248201527f4552433732313a206d696e7420746f20746865207a65726f2061646472657373604482015260640161044a565b6000818152600260205260409020546001600160a01b031615610cee5760405162461bcd60e51b815260206004820152601c60248201527f4552433732313a20746f6b656e20616c7265616479206d696e74656400000000604482015260640161044a565b610cfc600083836001610f60565b6000818152600260205260409020546001600160a01b031615610d615760405162461bcd60e51b815260206004820152601c60248201527f4552433732313a20746f6b656e20616c7265616479206d696e74656400000000604482015260640161044a565b6001600160a01b038216600081815260036020908152604080832080546001019055848352600290915280822080546001600160a01b0319168417905551839291907fddf252ad1be2c89b69c2b068fc378daa952ba7f163c4a11628f55a4df523b3ef908290a45050565b816001600160a01b0316836001600160a01b031603610e2d5760405162461bcd60e51b815260206004820152601960248201527f4552433732313a20617070726f766520746f2063616c6c657200000000000000604482015260640161044a565b6001600160a01b03838116600081815260056020908152604080832094871680845294825291829020805460ff191686151590811790915591519182527f17307eab39ab6107e8899845ad3d59bd9653f200f220920489ca2b5937696c31910160405180910390a3505050565b610ea5848484610ac2565b610eb18484848461100d565b6108525760405162461bcd60e51b815260040161044a906116bd565b60606000610eda8361110e565b600101905060008167ffffffffffffffff811115610efa57610efa61144e565b6040519080825280601f01601f191660200182016040528015610f24576020820181803683370190505b5090508181016020015b600019016f181899199a1a9b1b9c1cb0b131b232b360811b600a86061a8153600a8504945084610f2e57509392505050565b610f6d84848460016111e6565b826001600160a01b0316846001600160a01b031614158015610fa557506000828152600660205260409020546001600160a01b031615155b1561085257600082815260066020908152604080832080546001600160e01b0319168155600181018490556002018390555182815284917f4e06b4e7000e659094299b3533b47b6aa8ad048e95e872d23d1f4ee55af89cfe910160405180910390a350505050565b60006001600160a01b0384163b1561110357604051630a85bd0160e11b81526001600160a01b0385169063150b7a029061105190339089908890889060040161170f565b6020604051808303816000875af192505050801561108c575060408051601f3d908101601f191682019092526110899181019061174c565b60015b6110e9573d8080156110ba576040519150601f19603f3d011682016040523d82523d6000602084013e6110bf565b606091505b5080516000036110e15760405162461bcd60e51b815260040161044a906116bd565b805181602001fd5b6001600160e01b031916630a85bd0160e11b149050610aba565b506001949350505050565b60008072184f03e93ff9f4daa797ed6e38ed64bf6a1f0160401b831061114d5772184f03e93ff9f4daa797ed6e38ed64bf6a1f0160401b830492506040015b6d04ee2d6d415b85acef81000000008310611179576d04ee2d6d415b85acef8100000000830492506020015b662386f26fc10000831061119757662386f26fc10000830492506010015b6305f5e10083106111af576305f5e100830492506008015b61271083106111c357612710830492506004015b606483106111d5576064830492506002015b600a83106103175760010192915050565b6001811115610852576001600160a01b0384161561122c576001600160a01b03841660009081526003602052604081208054839290611226908490611769565b90915550505b6001600160a01b03831615610852576001600160a01b0383166000908152600360205260408120805483929061126390849061177c565b909155505050505050565b6001600160e01b03198116811461080e57600080fd5b60006020828403121561129657600080fd5b81356109118161126e565b60005b838110156112bc5781810151838201526020016112a4565b50506000910152565b600081518084526112dd8160208601602086016112a1565b601f01601f19169290920160200192915050565b60208152600061091160208301846112c5565b60006020828403121561131657600080fd5b5035919050565b80356001600160a01b03811681146107f057600080fd5b6000806040838503121561134757600080fd5b6113508361131d565b946020939093013593505050565b60008060006060848603121561137357600080fd5b61137c8461131d565b925061138a6020850161131d565b9150604084013590509250925092565b600080600080600060a086880312156113b257600080fd5b853594506113c26020870161131d565b9350604086013567ffffffffffffffff811681146113df57600080fd5b94979396509394606081013594506080013592915050565b60006020828403121561140957600080fd5b6109118261131d565b6000806040838503121561142557600080fd5b61142e8361131d565b91506020830135801515811461144357600080fd5b809150509250929050565b634e487b7160e01b600052604160045260246000fd5b6000806000806080858703121561147a57600080fd5b6114838561131d565b93506114916020860161131d565b925060408501359150606085013567ffffffffffffffff808211156114b557600080fd5b818701915087601f8301126114c957600080fd5b8135818111156114db576114db61144e565b604051601f8201601f19908116603f011681019083821181831017156115035761150361144e565b816040528281528a602084870101111561151c57600080fd5b82602086016020830137600060208483010152809550505050505092959194509250565b6000806040838503121561155357600080fd5b61155c8361131d565b915061156a6020840161131d565b90509250929050565b600181811c9082168061158757607f821691505b6020821081036115a757634e487b7160e01b600052602260045260246000fd5b50919050565b6020808252602d908201527f4552433732313a2063616c6c6572206973206e6f7420746f6b656e206f776e6560408201526c1c881bdc88185c1c1c9bdd9959609a1b606082015260800190565b634e487b7160e01b600052601160045260246000fd5b8082028115828204841417610317576103176115fa565b60008261164457634e487b7160e01b600052601260045260246000fd5b500490565b6000835161165b8184602088016112a1565b83519083019061166f8183602088016112a1565b01949350505050565b60208082526025908201527f4552433732313a207472616e736665722066726f6d20696e636f72726563742060408201526437bbb732b960d91b606082015260800190565b60208082526032908201527f4552433732313a207472616e7366657220746f206e6f6e20455243373231526560408201527131b2b4bb32b91034b6b83632b6b2b73a32b960711b606082015260800190565b6001600160a01b0385811682528416602082015260408101839052608060608201819052600090611742908301846112c5565b9695505050505050565b60006020828403121561175e57600080fd5b81516109118161126e565b81810381811115610317576103176115fa565b80820180821115610317576103176115fa56fea2646970667358221220a0865d6a418623f4857b844477cefc0d7767533a404c23974261c3b0a08e060264736f6c63430008110033",
    "linkReferences": {}
  },
  "methodIdentifiers": {
    "approve(address,uint256)": "095ea7b3",
    "balanceOf(address)": "70a08231",
    "getApproved(uint256)": "081812fc",
    "isApprovedForAll(address,address)": "e985e9c5",
    "isRentable(uint256)": "c392598d",
    "mint(uint256)": "a0712d68",
    "name()": "06fdde03",
    "ownerOf(uint256)": "6352211e",
    "rentFee(uint256)": "3094321a",
    "safeTransferFrom(address,address,uint256)": "42842e0e",
    "safeTransferFrom(address,address,uint256,bytes)": "b88d4fde",
    "setApprovalForAll(address,bool)": "a22cb465",
    "setUser(uint256,address,uint64,uint256,uint256)": "325effee",
    "supportsInterface(bytes4)": "01ffc9a7",
    "symbol()": "95d89b41",
    "time()": "16ada547",
    "tokenURI(uint256)": "c87b56dd",
    "transferFrom(address,address,uint256)": "23b872dd",
    "userExpires(uint256)": "8fc88c48",
    "userOf(uint256)": "c2f1f14a"
  },
  "id": 28
}