{
  "abi": [
    {
      "inputs": [
        {
          "internalType": "string",
          "name": "name_",
          "type": "string"
        },
        {
          "internalType": "string",
          "name": "symbol_",
          "type": "string"
        }
      ],
      "stateMutability": "nonpayable",
      "type": "constructor"
    },
    {
      "anonymous": false,
      "inputs": [
        {
          "indexed": true,
          "internalType": "address",
          "name": "owner",
          "type": "address"
        },
        {
          "indexed": true,
          "internalType": "address",
          "name": "approved",
          "type": "address"
        },
        {
          "indexed": true,
          "internalType": "uint256",
          "name": "tokenId",
          "type": "uint256"
        }
      ],
      "name": "Approval",
      "type": "event"
    },
    {
      "anonymous": false,
      "inputs": [
        {
          "indexed": true,
          "internalType": "address",
          "name": "owner",
          "type": "address"
        },
        {
          "indexed": true,
          "internalType": "address",
          "name": "operator",
          "type": "address"
        },
        {
          "indexed": false,
          "internalType": "bool",
          "name": "approved",
          "type": "bool"
        }
      ],
      "name": "ApprovalForAll",
      "type": "event"
    },
    {
      "anonymous": false,
      "inputs": [
        {
          "indexed": true,
          "internalType": "address",
          "name": "from",
          "type": "address"
        },
        {
          "indexed": true,
          "internalType": "address",
          "name": "to",
          "type": "address"
        },
        {
          "indexed": true,
          "internalType": "uint256",
          "name": "tokenId",
          "type": "uint256"
        }
      ],
      "name": "Transfer",
      "type": "event"
    },
    {
      "anonymous": false,
      "inputs": [
        {
          "indexed": true,
          "internalType": "uint256",
          "name": "tokenId",
          "type": "uint256"
        },
        {
          "indexed": true,
          "internalType": "address",
          "name": "user",
          "type": "address"
        },
        {
          "indexed": false,
          "internalType": "uint64",
          "name": "expires",
          "type": "uint64"
        }
      ],
      "name": "UpdateUser",
      "type": "event"
    },
    {
      "inputs": [
        {
          "internalType": "address",
          "name": "to",
          "type": "address"
        },
        {
          "internalType": "uint256",
          "name": "tokenId",
          "type": "uint256"
        }
      ],
      "name": "approve",
      "outputs": [],
      "stateMutability": "nonpayable",
      "type": "function"
    },
    {
      "inputs": [
        {
          "internalType": "address",
          "name": "owner",
          "type": "address"
        }
      ],
      "name": "balanceOf",
      "outputs": [
        {
          "internalType": "uint256",
          "name": "",
          "type": "uint256"
        }
      ],
      "stateMutability": "view",
      "type": "function"
    },
    {
      "inputs": [
        {
          "internalType": "uint256",
          "name": "tokenId",
          "type": "uint256"
        }
      ],
      "name": "getApproved",
      "outputs": [
        {
          "internalType": "address",
          "name": "",
          "type": "address"
        }
      ],
      "stateMutability": "view",
      "type": "function"
    },
    {
      "inputs": [
        {
          "internalType": "address",
          "name": "owner",
          "type": "address"
        },
        {
          "internalType": "address",
          "name": "operator",
          "type": "address"
        }
      ],
      "name": "isApprovedForAll",
      "outputs": [
        {
          "internalType": "bool",
          "name": "",
          "type": "bool"
        }
      ],
      "stateMutability": "view",
      "type": "function"
    },
    {
      "inputs": [
        {
          "internalType": "address",
          "name": "sender",
          "type": "address"
        },
        {
          "internalType": "uint256",
          "name": "tokenId",
          "type": "uint256"
        }
      ],
      "name": "isApprovedOrOwner",
      "outputs": [
        {
          "internalType": "bool",
          "name": "",
          "type": "bool"
        }
      ],
      "stateMutability": "nonpayable",
      "type": "function"
    },
    {
      "inputs": [
        {
          "internalType": "uint256",
          "name": "tokenId",
          "type": "uint256"
        }
      ],
      "name": "mint",
      "outputs": [],
      "stateMutability": "nonpayable",
      "type": "function"
    },
    {
      "inputs": [],
      "name": "name",
      "outputs": [
        {
          "internalType": "string",
          "name": "",
          "type": "string"
        }
      ],
      "stateMutability": "view",
      "type": "function"
    },
    {
      "inputs": [
        {
          "internalType": "uint256",
          "name": "tokenId",
          "type": "uint256"
        }
      ],
      "name": "ownerOf",
      "outputs": [
        {
          "internalType": "address",
          "name": "",
          "type": "address"
        }
      ],
      "stateMutability": "view",
      "type": "function"
    },
    {
      "inputs": [
        {
          "internalType": "address",
          "name": "from",
          "type": "address"
        },
        {
          "internalType": "address",
          "name": "to",
          "type": "address"
        },
        {
          "internalType": "uint256",
          "name": "tokenId",
          "type": "uint256"
        }
      ],
      "name": "safeTransferFrom",
      "outputs": [],
      "stateMutability": "nonpayable",
      "type": "function"
    },
    {
      "inputs": [
        {
          "internalType": "address",
          "name": "from",
          "type": "address"
        },
        {
          "internalType": "address",
          "name": "to",
          "type": "address"
        },
        {
          "internalType": "uint256",
          "name": "tokenId",
          "type": "uint256"
        },
        {
          "internalType": "bytes",
          "name": "data",
          "type": "bytes"
        }
      ],
      "name": "safeTransferFrom",
      "outputs": [],
      "stateMutability": "nonpayable",
      "type": "function"
    },
    {
      "inputs": [
        {
          "internalType": "address",
          "name": "operator",
          "type": "address"
        },
        {
          "internalType": "bool",
          "name": "approved",
          "type": "bool"
        }
      ],
      "name": "setApprovalForAll",
      "outputs": [],
      "stateMutability": "nonpayable",
      "type": "function"
    },
    {
      "inputs": [
        {
          "internalType": "uint256",
          "name": "tokenId",
          "type": "uint256"
        },
        {
          "internalType": "address",
          "name": "user",
          "type": "address"
        },
        {
          "internalType": "uint64",
          "name": "expires",
          "type": "uint64"
        }
      ],
      "name": "setUser",
      "outputs": [],
      "stateMutability": "nonpayable",
      "type": "function"
    },
    {
      "inputs": [
        {
          "internalType": "bytes4",
          "name": "interfaceId",
          "type": "bytes4"
        }
      ],
      "name": "supportsInterface",
      "outputs": [
        {
          "internalType": "bool",
          "name": "",
          "type": "bool"
        }
      ],
      "stateMutability": "view",
      "type": "function"
    },
    {
      "inputs": [],
      "name": "symbol",
      "outputs": [
        {
          "internalType": "string",
          "name": "",
          "type": "string"
        }
      ],
      "stateMutability": "view",
      "type": "function"
    },
    {
      "inputs": [],
      "name": "time",
      "outputs": [
        {
          "internalType": "uint256",
          "name": "",
          "type": "uint256"
        }
      ],
      "stateMutability": "view",
      "type": "function"
    },
    {
      "inputs": [
        {
          "internalType": "uint256",
          "name": "tokenId",
          "type": "uint256"
        }
      ],
      "name": "tokenURI",
      "outputs": [
        {
          "internalType": "string",
          "name": "",
          "type": "string"
        }
      ],
      "stateMutability": "view",
      "type": "function"
    },
    {
      "inputs": [
        {
          "internalType": "address",
          "name": "from",
          "type": "address"
        },
        {
          "internalType": "address",
          "name": "to",
          "type": "address"
        },
        {
          "internalType": "uint256",
          "name": "tokenId",
          "type": "uint256"
        }
      ],
      "name": "transferFrom",
      "outputs": [],
      "stateMutability": "nonpayable",
      "type": "function"
    },
    {
      "inputs": [
        {
          "internalType": "uint256",
          "name": "tokenId",
          "type": "uint256"
        }
      ],
      "name": "userExpires",
      "outputs": [
        {
          "internalType": "uint256",
          "name": "",
          "type": "uint256"
        }
      ],
      "stateMutability": "view",
      "type": "function"
    },
    {
      "inputs": [
        {
          "internalType": "uint256",
          "name": "tokenId",
          "type": "uint256"
        }
      ],
      "name": "userOf",
      "outputs": [
        {
          "internalType": "address",
          "name": "",
          "type": "address"
        }
      ],
      "stateMutability": "view",
      "type": "function"
    }
  ],
  "bytecode": {
    "object": "0x60806040523480156200001157600080fd5b50604051620019a1380380620019a1833981016040819052620000349162000123565b818160006200004483826200021c565b5060016200005382826200021c565b5050505050620002e8565b634e487b7160e01b600052604160045260246000fd5b600082601f8301126200008657600080fd5b81516001600160401b0380821115620000a357620000a36200005e565b604051601f8301601f19908116603f01168101908282118183101715620000ce57620000ce6200005e565b81604052838152602092508683858801011115620000eb57600080fd5b600091505b838210156200010f5785820183015181830184015290820190620000f0565b600093810190920192909252949350505050565b600080604083850312156200013757600080fd5b82516001600160401b03808211156200014f57600080fd5b6200015d8683870162000074565b935060208501519150808211156200017457600080fd5b50620001838582860162000074565b9150509250929050565b600181811c90821680620001a257607f821691505b602082108103620001c357634e487b7160e01b600052602260045260246000fd5b50919050565b601f8211156200021757600081815260208120601f850160051c81016020861015620001f25750805b601f850160051c820191505b818110156200021357828155600101620001fe565b5050505b505050565b81516001600160401b038111156200023857620002386200005e565b62000250816200024984546200018d565b84620001c9565b602080601f8311600181146200028857600084156200026f5750858301515b600019600386901b1c1916600185901b17855562000213565b600085815260208120601f198616915b82811015620002b95788860151825594840194600190910190840162000298565b5085821015620002d85787850151600019600388901b60f8161c191681555b5050505050600190811b01905550565b6116a980620002f86000396000f3fe608060405234801561001057600080fd5b50600436106101215760003560e01c806370a08231116100ad578063b88d4fde11610071578063b88d4fde14610253578063c2f1f14a14610266578063c87b56dd14610279578063e030565e1461028c578063e985e9c51461029f57600080fd5b806370a08231146101ff5780638fc88c481461021257806395d89b4114610225578063a0712d681461022d578063a22cb4651461024057600080fd5b806316ada547116100f457806316ada547146101a357806323b872dd146101b357806342842e0e146101c6578063430c2081146101d95780636352211e146101ec57600080fd5b806301ffc9a71461012657806306fdde031461014e578063081812fc14610163578063095ea7b31461018e575b600080fd5b6101396101343660046111b1565b6102b2565b60405190151581526020015b60405180910390f35b6101566102dd565b604051610145919061121e565b610176610171366004611231565b61036f565b6040516001600160a01b039091168152602001610145565b6101a161019c366004611261565b610396565b005b425b604051908152602001610145565b6101a16101c136600461128b565b6104b0565b6101a16101d436600461128b565b6104e1565b6101396101e7366004611261565b6104fc565b6101766101fa366004611231565b61050f565b6101a561020d3660046112c7565b61056f565b6101a5610220366004611231565b6105f5565b610156610659565b6101a161023b366004611231565b610668565b6101a161024e3660046112e2565b610675565b6101a1610261366004611334565b610684565b610176610274366004611231565b6106bc565b610156610287366004611231565b610708565b6101a161029a366004611410565b61077c565b6101396102ad36600461145d565b61085b565b60006001600160e01b03198216632b424ad760e21b14806102d757506102d782610889565b92915050565b6060600080546102ec90611490565b80601f016020809104026020016040519081016040528092919081815260200182805461031890611490565b80156103655780601f1061033a57610100808354040283529160200191610365565b820191906000526020600020905b81548152906001019060200180831161034857829003601f168201915b5050505050905090565b600061037a826108d9565b506000908152600460205260409020546001600160a01b031690565b60006103a18261050f565b9050806001600160a01b0316836001600160a01b0316036104135760405162461bcd60e51b815260206004820152602160248201527f4552433732313a20617070726f76616c20746f2063757272656e74206f776e656044820152603960f91b60648201526084015b60405180910390fd5b336001600160a01b038216148061042f575061042f813361085b565b6104a15760405162461bcd60e51b815260206004820152603d60248201527f4552433732313a20617070726f76652063616c6c6572206973206e6f7420746f60448201527f6b656e206f776e6572206f7220617070726f76656420666f7220616c6c000000606482015260840161040a565b6104ab8383610938565b505050565b6104ba33826109a6565b6104d65760405162461bcd60e51b815260040161040a906114ca565b6104ab838383610a05565b6104ab83838360405180602001604052806000815250610684565b600061050883836109a6565b5092915050565b6000818152600260205260408120546001600160a01b0316806102d75760405162461bcd60e51b8152602060048201526018602482015277115490cdcc8c4e881a5b9d985b1a59081d1bdad95b88125160421b604482015260640161040a565b60006001600160a01b0382166105d95760405162461bcd60e51b815260206004820152602960248201527f4552433732313a2061646472657373207a65726f206973206e6f7420612076616044820152683634b21037bbb732b960b91b606482015260840161040a565b506001600160a01b031660009081526003602052604090205490565b60008181526006602052604081205442600160a01b90910467ffffffffffffffff16106106405750600090815260066020526040902054600160a01b900467ffffffffffffffff1690565b506c01431e0fae6d7217caa0000000919050565b919050565b6060600180546102ec90611490565b6106723382610b76565b50565b610680338383610d0f565b5050565b61068e33836109a6565b6106aa5760405162461bcd60e51b815260040161040a906114ca565b6106b684848484610ddd565b50505050565b60008181526006602052604081205442600160a01b90910467ffffffffffffffff16106106ff57506000908152600660205260409020546001600160a01b031690565b6102d78261050f565b6060610713826108d9565b600061072a60408051602081019091526000815290565b9050600081511161074a5760405180602001604052806000815250610775565b8061075484610e10565b604051602001610765929190611517565b6040516020818303038152906040525b9392505050565b6000838152600660205260409020805442600160a01b90910467ffffffffffffffff16106107ec5760405162461bcd60e51b815260206004820152601960248201527f416c72656164792072656e74656420746f20736f6d656f6e6500000000000000604482015260640161040a565b80546001600160a01b0384166001600160e01b03199091168117600160a01b67ffffffffffffffff851690810291909117835560405190815285907f4e06b4e7000e659094299b3533b47b6aa8ad048e95e872d23d1f4ee55af89cfe906020015b60405180910390a350505050565b6001600160a01b03918216600090815260056020908152604080832093909416825291909152205460ff1690565b60006001600160e01b031982166380ac58cd60e01b14806108ba57506001600160e01b03198216635b5e139f60e01b145b806102d757506301ffc9a760e01b6001600160e01b03198316146102d7565b6000818152600260205260409020546001600160a01b03166106725760405162461bcd60e51b8152602060048201526018602482015277115490cdcc8c4e881a5b9d985b1a59081d1bdad95b88125160421b604482015260640161040a565b600081815260046020526040902080546001600160a01b0319166001600160a01b038416908117909155819061096d8261050f565b6001600160a01b03167f8c5be1e5ebec7d5bd14f71427d1e84f3dd0314c0f7b2291e5b200ac8c7c3b92560405160405180910390a45050565b6000806109b28361050f565b9050806001600160a01b0316846001600160a01b031614806109d957506109d9818561085b565b806109fd5750836001600160a01b03166109f28461036f565b6001600160a01b0316145b949350505050565b826001600160a01b0316610a188261050f565b6001600160a01b031614610a3e5760405162461bcd60e51b815260040161040a90611546565b6001600160a01b038216610aa05760405162461bcd60e51b8152602060048201526024808201527f4552433732313a207472616e7366657220746f20746865207a65726f206164646044820152637265737360e01b606482015260840161040a565b610aad8383836001610ea3565b826001600160a01b0316610ac08261050f565b6001600160a01b031614610ae65760405162461bcd60e51b815260040161040a90611546565b600081815260046020908152604080832080546001600160a01b03199081169091556001600160a01b0387811680865260038552838620805460001901905590871680865283862080546001019055868652600290945282852080549092168417909155905184937fddf252ad1be2c89b69c2b068fc378daa952ba7f163c4a11628f55a4df523b3ef91a4505050565b6001600160a01b038216610bcc5760405162461bcd60e51b815260206004820181905260248201527f4552433732313a206d696e7420746f20746865207a65726f2061646472657373604482015260640161040a565b6000818152600260205260409020546001600160a01b031615610c315760405162461bcd60e51b815260206004820152601c60248201527f4552433732313a20746f6b656e20616c7265616479206d696e74656400000000604482015260640161040a565b610c3f600083836001610ea3565b6000818152600260205260409020546001600160a01b031615610ca45760405162461bcd60e51b815260206004820152601c60248201527f4552433732313a20746f6b656e20616c7265616479206d696e74656400000000604482015260640161040a565b6001600160a01b038216600081815260036020908152604080832080546001019055848352600290915280822080546001600160a01b0319168417905551839291907fddf252ad1be2c89b69c2b068fc378daa952ba7f163c4a11628f55a4df523b3ef908290a45050565b816001600160a01b0316836001600160a01b031603610d705760405162461bcd60e51b815260206004820152601960248201527f4552433732313a20617070726f766520746f2063616c6c657200000000000000604482015260640161040a565b6001600160a01b03838116600081815260056020908152604080832094871680845294825291829020805460ff191686151590811790915591519182527f17307eab39ab6107e8899845ad3d59bd9653f200f220920489ca2b5937696c31910160405180910390a3505050565b610de8848484610a05565b610df484848484610f3a565b6106b65760405162461bcd60e51b815260040161040a9061158b565b60606000610e1d8361103b565b600101905060008167ffffffffffffffff811115610e3d57610e3d61131e565b6040519080825280601f01601f191660200182016040528015610e67576020820181803683370190505b5090508181016020015b600019016f181899199a1a9b1b9c1cb0b131b232b360811b600a86061a8153600a8504945084610e7157509392505050565b610eb08484846001611113565b826001600160a01b0316846001600160a01b031614158015610ee857506000828152600660205260409020546001600160a01b031615155b156106b657600082815260066020908152604080832080546001600160e01b03191690555182815284917f4e06b4e7000e659094299b3533b47b6aa8ad048e95e872d23d1f4ee55af89cfe910161084d565b60006001600160a01b0384163b1561103057604051630a85bd0160e11b81526001600160a01b0385169063150b7a0290610f7e9033908990889088906004016115dd565b6020604051808303816000875af1925050508015610fb9575060408051601f3d908101601f19168201909252610fb69181019061161a565b60015b611016573d808015610fe7576040519150601f19603f3d011682016040523d82523d6000602084013e610fec565b606091505b50805160000361100e5760405162461bcd60e51b815260040161040a9061158b565b805181602001fd5b6001600160e01b031916630a85bd0160e11b1490506109fd565b506001949350505050565b60008072184f03e93ff9f4daa797ed6e38ed64bf6a1f0160401b831061107a5772184f03e93ff9f4daa797ed6e38ed64bf6a1f0160401b830492506040015b6d04ee2d6d415b85acef810000000083106110a6576d04ee2d6d415b85acef8100000000830492506020015b662386f26fc1000083106110c457662386f26fc10000830492506010015b6305f5e10083106110dc576305f5e100830492506008015b61271083106110f057612710830492506004015b60648310611102576064830492506002015b600a83106102d75760010192915050565b60018111156106b6576001600160a01b03841615611159576001600160a01b0384166000908152600360205260408120805483929061115390849061164d565b90915550505b6001600160a01b038316156106b6576001600160a01b03831660009081526003602052604081208054839290611190908490611660565b909155505050505050565b6001600160e01b03198116811461067257600080fd5b6000602082840312156111c357600080fd5b81356107758161119b565b60005b838110156111e95781810151838201526020016111d1565b50506000910152565b6000815180845261120a8160208601602086016111ce565b601f01601f19169290920160200192915050565b60208152600061077560208301846111f2565b60006020828403121561124357600080fd5b5035919050565b80356001600160a01b038116811461065457600080fd5b6000806040838503121561127457600080fd5b61127d8361124a565b946020939093013593505050565b6000806000606084860312156112a057600080fd5b6112a98461124a565b92506112b76020850161124a565b9150604084013590509250925092565b6000602082840312156112d957600080fd5b6107758261124a565b600080604083850312156112f557600080fd5b6112fe8361124a565b91506020830135801515811461131357600080fd5b809150509250929050565b634e487b7160e01b600052604160045260246000fd5b6000806000806080858703121561134a57600080fd5b6113538561124a565b93506113616020860161124a565b925060408501359150606085013567ffffffffffffffff8082111561138557600080fd5b818701915087601f83011261139957600080fd5b8135818111156113ab576113ab61131e565b604051601f8201601f19908116603f011681019083821181831017156113d3576113d361131e565b816040528281528a60208487010111156113ec57600080fd5b82602086016020830137600060208483010152809550505050505092959194509250565b60008060006060848603121561142557600080fd5b833592506114356020850161124a565b9150604084013567ffffffffffffffff8116811461145257600080fd5b809150509250925092565b6000806040838503121561147057600080fd5b6114798361124a565b91506114876020840161124a565b90509250929050565b600181811c908216806114a457607f821691505b6020821081036114c457634e487b7160e01b600052602260045260246000fd5b50919050565b6020808252602d908201527f4552433732313a2063616c6c6572206973206e6f7420746f6b656e206f776e6560408201526c1c881bdc88185c1c1c9bdd9959609a1b606082015260800190565b600083516115298184602088016111ce565b83519083019061153d8183602088016111ce565b01949350505050565b60208082526025908201527f4552433732313a207472616e736665722066726f6d20696e636f72726563742060408201526437bbb732b960d91b606082015260800190565b60208082526032908201527f4552433732313a207472616e7366657220746f206e6f6e20455243373231526560408201527131b2b4bb32b91034b6b83632b6b2b73a32b960711b606082015260800190565b6001600160a01b0385811682528416602082015260408101839052608060608201819052600090611610908301846111f2565b9695505050505050565b60006020828403121561162c57600080fd5b81516107758161119b565b634e487b7160e01b600052601160045260246000fd5b818103818111156102d7576102d7611637565b808201808211156102d7576102d761163756fea26469706673582212201c21058189db6c6b4df75fcc60bb07d2084f62d223812786e9db22cda3853ed964736f6c63430008110033",
    "linkReferences": {}
  },
  "methodIdentifiers": {
    "approve(address,uint256)": "095ea7b3",
    "balanceOf(address)": "70a08231",
    "getApproved(uint256)": "081812fc",
    "isApprovedForAll(address,address)": "e985e9c5",
    "isApprovedOrOwner(address,uint256)": "430c2081",
    "mint(uint256)": "a0712d68",
    "name()": "06fdde03",
    "ownerOf(uint256)": "6352211e",
    "safeTransferFrom(address,address,uint256)": "42842e0e",
    "safeTransferFrom(address,address,uint256,bytes)": "b88d4fde",
    "setApprovalForAll(address,bool)": "a22cb465",
    "setUser(uint256,address,uint64)": "e030565e",
    "supportsInterface(bytes4)": "01ffc9a7",
    "symbol()": "95d89b41",
    "time()": "16ada547",
    "tokenURI(uint256)": "c87b56dd",
    "transferFrom(address,address,uint256)": "23b872dd",
    "userExpires(uint256)": "8fc88c48",
    "userOf(uint256)": "c2f1f14a"
  },
  "id": 27
}